:100000000C942A000C9447000C9447000C94470071
:100010000C9447000C9447000C9447000C94470044
:100020000C9447000C9447000C9447000C94470034
:100030000C9447000C9447000C9447000C94470024
:100040000C9447000C9447000C9447000C94470014
:100050000C94470011241FBECFE5D4E0DEBFCDBF16
:1000600010E0A0E6B0E0E2E2F2E002C005900D92FE
:10007000A036B107D9F710E0A0E6B0E001C01D92AC
:10008000A036B107E1F70E94DA000C940F010C943E
:100090000000282F207F28BBC298C39A2AEF30E0A7
:1000A000F9013197F1F7C398F9013197F1F790E031
:1000B00044E0880F991F4A95E1F788BBC298C39A1C
:1000C000C9010197F1F7C398C9010197F1F70895A4
:1000D00082E090E00E94490088E290E00E9449009E
:1000E00086E090E00E9449008CE090E00E94490088
:1000F0000895282F207F28BBC29AC39A2AEF30E0A8
:10010000F9013197F1F7C398F9013197F1F790E0D0
:1001100054E0880F991F5A95E1F788BBC29AC39A99
:10012000C9010197F1F7C398C9010197F1F7089543
:1001300081E00E9449008AEF90E00197F1F708956D
:100140001F93CF93DF93EC0110E003C00E9479006E
:100150001F5FFE01E10FF11D80818823B9F7DF9158
:10016000CF911F910895CF93DF93EC0184E00E941B
:100170004900209791F480E30E9479000EC0CE01DF
:100180006AE070E00E94FB00805D0E947900CE0171
:100190006AE070E00E94FB00EB01209781F786E0A7
:1001A0000E944900DF91CF91089583B7896783BF8B
:1001B000BB9A08951ABA81E08BBB83B7896783BF66
:1001C000BB9A49E150E01CBE20E02CBF88EB9BE0CD
:1001D000FA013197F1F70197D9F72F5F2A3FA9F775
:1001E0002CBF88EB9BE0FA013197F1F70197D9F723
:1001F0002150B1F7E8CFAA1BBB1B51E107C0AA1FD2
:10020000BB1FA617B70710F0A61BB70B881F991FB7
:100210005A95A9F780959095BC01CD010895F89461
:02022000FFCF0E
:00000001FF
